:0E00000039C0FECFFDCFFCCFFBCFFACFF9CF3A
:10000E00F8CFF7CFF6CFF5CF5DC0F3CFF2CF8AC0E2
:10001E00F0CFEFCFEECFEDCF1027E80364000A004C
:10002E00010000100001100001000000FF0301009C
:10003E0000000000FF034E4F004F4B004625642585
:10004E006400502564253034640054256425303313
:10005E0064000100020038000200C7013A000800E7
:10006E0006003C000000F894EE27ECBBF1E0FBBF6D
:10007E00EBBFE5BFF8E1F1BDE1BD8DE0A2E0BB272E
:10008E00ED938A95E9F780E094E0A0E6ED93019771
:10009E00E9F7E0E6F0E085919591009761F0A59182
:1000AE00B59105901590BF01F00105900D92019745
:1000BE00E1F7FB01F0CFEFE5EDBFE4E0EEBFC0E608
:1000CE00D1E0C7C1EA93FA93EFB7EA93CCD31BB151
:1000DE000CB1E12FEC7179F4E52D55D300835394D7
:1000EE00E4E6E51509F455247394E4E6E71519F4EE
:1000FE007724689420F8C1D3E991EFBFF991E99183
:10010E0018951A937720F1F3E42D3DD31081439483
:10011E00E4E6E41509F44424F8947A947894E12FF3
:10012E00199108958A93AA93BA93EA93EFB7EA9333
:10013E00A091C601B0E0AC53BE4FE5B1EC93A091D7
:10014E00C601AF5FA093C601A23018F0E0E0E093C5
:10015E00C601E091C601EE5DE7B981E18A95F1F73E
:10016E00369AE991EFBFE991B991A99189911895C4
:10017E007720F1F3C6DF089574D310E020E030E06D
:10018E0011E0EC81E11708F445C0F2DF0E2FE02FED
:10019E00E13321F4FCD231969F013AC0E23321F4CF
:1001AE00F6D232969F0134C0E33321F4F0D2339667
:1001BE009F012EC0E43321F4EAD234969F0128C069
:1001CE00E53321F4E4D235969F0122C0E63321F4C3
:1001DE00DED236969F011CC0E73321F4D8D2379673
:1001EE009F0116C0E83321F4D2D238969F0110C079
:1001FE00E93321F4CCD239969F010AC0E03321F4C1
:10020E00C6D230969F0104C01150C7D2C9D2CBD2EC
:10021E001F5FB7CFF9012CD325960895E981E13000
:10022E0099F4A8819A1641F4E92DE03011F49298D0
:10023E0001C0929A892C07C0E62DE03011F49298F5
:10024E0001C0929A862C29C0E23099F4A8819A16A0
:10025E0041F4E92DE03011F4939801C0939AB92C32
:10026E0007C0E62DE03011F4939801C0939AB62C96
:10027E0014C0E33091F4A8819A1641F4E92DE030D0
:10028E0011F4949801C0949AA92C07C0E62DE03081
:10029E0011F4949801C0949AA62C22960895EA819E
:1002AE00E13039F4C880D980ED2DF070EBBDCABCB9
:1002BE000FC0E23069F4E881F981E093C701F09351
:1002CE00C801E091C801F070E9BDE091C701E8BD39
:1002DE0010C1E881E13011F4E82DFFC0E23011F4D5
:1002EE00EB2DFBC0E33011F4EA2DF7C0F6C0E88128
:1002FE00E13011F4F601F1C0E23029F4E091C701CA
:10030E00F091C801EAC0E9C0E881E13029F4E0913A
:10031E00C401E093C901E1C0E23029F4E091C501C6
:10032E00E093CA01DAC0D9C02897E0E0E883E983F8
:10033E00EA83EB83EC83ED83EE83EF8390D200E0D0
:10034E0010E020E030E040E050E0772009F47EC07D
:10035E00D8DE0E2F1127E3E2F0E0E017F10709F0E7
:10036E0072C006DF2E2F3327F901E335A0E0FA071E
:10037E00F9F4FEDE4E2F5527FA01E634A0E0FA0717
:10038E0031F415D214D24ADFE7E4F0E00DC0E035C7
:10039E00A0E0FA0741F40BD2E4E00ED201D27FDFE7
:1003AE00E7E4F0E001C0F9D1FA93EA93FCD14AC038
:1003BE00E734A0E0FA0709F042C0DADEF0E0EC879D
:1003CE00FD87E634A0E0FA0771F4E1E0F5D1F6D14D
:1003DE00EAE4F0E0E5D1EC85FD85F3D1E889EA9316
:1003EE0078DFF3D12BC0E035A0E0FA0791F4E1E01D
:1003FE00E3D1E887F987E0E5F0E0D2D1EA85FB8525
:10040E00E0D1EE85EA9373DFDCD188E088D12A96BD
:10041E0015C0E435A0E0FA0771F4E1E0CDD1DDD1ED
:10042E00E8E5F0E0BDD1E885F985CBD1EC85EA931E
:10043E006BDFCBD103C0B1D1B3D1B5D103C0ADD138
:10044E00AFD1B1D103C0A9D1ABD1ADD10FD22E96C0
:10045E000895E0E0E8BBE6E0E7BBE3E7E5BBE0E0FC
:10046E00E4BBE2BBEEE1E1BBE0E0E3BFE2BFE3EF02
:10047E00EFBDE1E0EEBDE0E0EDBDECBDE7BDE6BDFC
:10048E00EBBDEABDE9BDE8BDE2BDE5BDE4BDE3BD42
:10049E00E5BFE9BFEBB9E8E9EAB9E6E8E0BDE0E0BF
:1004AE00E0BDE0E2E9B9E0E8E8B9E0E0E0BFE2E2B1
:1004BE00E7B9EDECE6B9369A7894E2E0EA93E1E03A
:1004CE00EA93ACDEE1E08CD1E2E08AD12DDFFECF03
:1004DE00FFCF5D9BFECFE881ECB921960895EA81AE
:1004EE00EA93F7DFA881B981ED91FD913196FE93E4
:1004FE00EE93239608952697B2D110E0AC85BD8574
:10050E00E0E0F0E0ED93FC93EA89FB893196EA8B0B
:10051E00FB8B3197E4912E2FE03009F4FAC0E12FD6
:10052E00E03031F4253211F411E001C05ED1F0C09B
:10053E00E130A1F4253211F458D1E9C012E040E0C7
:10054E0000E02D3211F401E0E3C02B3211F44BE246
:10055E00DFC0203211F440E2DBC002C0E23039F4D9
:10056E0050E013E0203311F40068D2C003C0E33032
:10057E0009F0CEC0203310F02A3308F007C0AAE0ED
:10058E005A9F502DE22FE0535E0FC2C0E22FE3368A
:10059E0039F433D135D131D1A481AA9335D1B7C035
:1005AE00E33729F438D139D1D9D01E2F07C0E0371F
:1005BE0049F431D132D1DCD01E2F086002600F77A2
:1005CE0030E02CC0E43611F0E93611F4046002C0BC
:1005DE00E53729F4E6E2F0E000D115E00BC0E8358E
:1005EE0011F4086003C0E83709F091C0E0E3F0E0D1
:1005FE00F4D014E002FF10C00ED117D1AB85AA23A0
:10060E002AF4EA85FB851AD1D9D04DE2403011F09B
:10061E001F5F01C00B7F02C0FED007D100FD10C0CE
:10062E00151770F407FF08C002FF04C00B7F242FBC
:10063E00115001C020E301C020E2D7D05150F0CFBD
:10064E00312F01FF15C0303091F003FF05C0EE8150
:10065E00FF812591C2D005C0AE81BF812D91AE83A1
:10066E00BF83C3D0503009F051503150ECCF46C04B
:10067E0020E3EE81FF81EAD0E887F987EE81FF81E2
:10068E003296ABD0E885F985AA85BB85AE17BF0734
:10069E0048F02F5FA885B985EA85FB85EA1BFB0B21
:1006AE008DD0F0CF2A3328F003FF02C0295F01C09E
:1006BE00295D04FD19C0213320F4A885B985119751
:1006CE0009F409C0531710F000FF01C011C020E259
:1006DE0007FF0AC020E3006102FF06C00B7F4A93AA
:1006EE0093D0503009F0515080D0503009F0515015
:1006FE003150A885B985129708F0BACF00FF07C010
:10070E00503029F05150E0E2EA937ED0F9CF10E05C
:10071E00FBCEAC85BD8596D0A9D064960895FF9288
:10072E00F82E2697A0D0DE01149684D08D01E0E03D
:10073E00EC83ED83EE83EF83DE0118967BD082D0BF
:10074E002FD01A930A93E6E7F2E02AD0FE013896EC
:10075E0027D0D1DE8FD02896FF900895A991B99118
:10076E00EE27FF276D91662311F03196FBCF08958A
:10077E00AA27BB27E991F9910590002011F0119657
:10078E00FBCFFD010895F0E0E05AFE4F0895AAE078
:10079E00A29FF001A39FF00D0895E4E4F0E0089508
:1007AE00FA93EA93089580E0BADF22960895E1E085
:1007BE00EA93E2DCEA930895EA93DECCEA87FB87BC
:1007CE0008956627772746D00895FF27662777274F
:1007DE0041D088E0A4DF2A960895EE83FF83089522
:1007EE00EA93EFEFF3E0DCDF5ACD2A93ED85FE8539
:1007FE00D7DFE989FA8909950895E889F989089575
:10080E003497E88BF98B0895ED85FE85C9DFE9896C
:10081E00FA8909950895F1DFF3CFA889B98914965D
:10082E0011D0DBDFEE81FF81BBCFA889B989149689
:10083E0009D0C4CF0024AF0DB01D0895F195E195F8
:10084E00F0400895ED91FC91119708950590F49163
:10085E00E02D08957A936A93FA93EA9308955A9342
:10086E004A933A932A931A930A9308955D814C8181
:10087E003B812A8119810881089509911991089562
:00000001FF
